:020000040800F2
:10000000980900243903000801450008853E0008CE
:10001000FD440008DF040008E75D00080000000060
:10002000000000000000000000000000F147000890
:10003000970700080000000003450008F347000888
:100040005303000853030008530300085303000838
:100050005303000853030008530300085303000828
:10006000530300085303000853030008E304000887
:10007000F304000853030008530300085303000867
:1000800053030008530300085303000853030008F8
:1000900053030008530300085303000853030008E8
:1000A00053030008530300085303000853030008D8
:1000B00053030008530300085303000853030008C8
:1000C00053030008530300085303000853030008B8
:1000D00053030008530300085303000853030008A8
:1000E00053030008530300080000000053030008F6
:1000F0005303000853030008530300085303000888
:100100005303000853030008530300085303000877
:100110005303000853030008530300085303000867
:100120005303000853030008530300085303000857
:100130005303000853030008530300085303000847
:1001400000000000000000000000000000000000AF
:100150005303000853030008530300085303000827
:100160005303000853030008530300085303000817
:100170005303000853030008530300080000000065
:1001800053030008530300085303000853030008F7
:1001900053030008530300085303000853030008E7
:1001A00053030008530300085303000853030008D7
:1001B00053030008530300085303000853030008C7
:1001C00053030008530300085303000853030008B7
:1001D00053030008530300085303000853030008A7
:1001E0005303000853030008530300085303000897
:1001F0005303000853030008530300085303000887
:100200005303000853030008530300085303000876
:100210005303000853030008530300085303000866
:1002200053030008530300085303000800000000B4
:1002300053030008530300080000000053030008A4
:100240005303000853030008530300085303000836
:100250005303000853030008530300085303000826
:100260005303000853030008530300085303000816
:100270005303000853030008530300080000000064
:1002800053030008000000005303000800000000B2
:10029000000000005303000800F002F800F03CF8F2
:1002A0000AA090E8000C82448344AAF10107DA45D1
:1002B00001D100F031F8AFF2090EBAE80F0013F0E7
:1002C000010F18BFFB1A43F0010318474C610000EF
:1002D0006C610000103A24BF78C878C1FAD8520780
:1002E00024BF30C830C144BF04680C6070470000B0
:1002F0000023002400250026103A28BF78C1FBD82F
:10030000520728BF30C148BF0B6070471FB506F0C9
:1003100035F81FBD10B510BD00F0A8F81146FFF765
:10032000F5FF05F082FD00F0C6F803B4FFF7F2FF19
:1003300003BC00F0CDF80000094880470948004799
:10034000FEE7FEE7FEE7FEE7FEE7FEE7FEE7FEE785
:10035000FEE7FEE704480549054A064B70470000E2
:1003600021490008990200089803002498090024F4
:10037000980500249805002453EA020C00F06980D7
:100380002DE9F04B4FF00006002B1FBFB3FA83F5A9
:1003900003FA05F424FA05F65E4012BF1643B2FADA
:1003A00082F502FA05F4C5F120051EBF22FA05FC0C
:1003B00044EA0C04203556EA044C4FEA144418BFB2
:1003C000641C4FF000084FF00009904271EB030CE1
:1003D00039D3002919BFB1FA81F701FA07F6B0FA4B
:1003E00080F700FA07F6C7F120071EBF20FA07FCC6
:1003F00046EA0C062037B6FBF4FCA7EB0507103FD6
:1004000007F01F0BCBF120060CFA0BFB2CFA06F6BB
:1004100044BFB3460026202FA4BF5E464FF0000B1A
:100420005BEA060C08BF4FF0010B19EB0B09ABFBA5
:10043000027C48EB0608C01B06FB02CC0BFB03CC7E
:1004400071EB0C01C1E70B46024641464846BDE848
:10045000F08B13B54FF000004FF00001AFF30080B8
:10046000BDE81C407047704770477047754600F004
:100470002BF8AE4605006946534620F00700854636
:1004800018B020B5FFF766FFBDE820404FF000062A
:100490004FF000074FF000084FF0000B21F007016C
:1004A000AC46ACE8C009ACE8C009ACE8C009ACE8AF
:1004B000C0098D46704710B50446AFF30080204652
:1004C000BDE81040FFF731BF0048704734030024F7
:1004D00001491820ABBEFEE726000200704700BFAE
:1004E000FEE710B540F24420C2F2004000F057F998
:1004F00010BD10B540F2BC20C2F2004000F04FF930
:1005000010BD0146087810381823B0FBF3F246F20C
:10051000DE30C0F60000805CC865032A05D9086893
:100520006FF30900001D886503E008686FF3090098
:100530008865886D704710B50021026845F29443C4
:10054000C5F602039A421AD845F20843C5F60203DB
:100550009A4214D30378083B1424B3FBF4F14FF40C
:10056000B043C5F6020303EB810303664FF4B143C6
:10057000C5F60203436601238B40836620E00378BF
:10058000103B1824B3FBF4F14FF49763C4F2020359
:100590009A4206D84FF48263C4F202039A4200D30F
:1005A00008314FF40063C4F2020303EB81030366D6
:1005B0004FF40863C4F20203436601238B40836651
:1005C00010BD10B50268017961B308292AD845F237
:1005D0009443C5F602039A4213D845F20843C5F680
:1005E00002039A420DD34B1E4FF4B244C5F60204E7
:1005F00004EB8303C36645F64013C5F602030367A5
:100600000CE04B1E4FF41064C4F2020404EB8303AD
:10061000C3664FF41463C4F2020303674B1E012444
:100620009C40446710BD014600208A69D2B98A6A9D
:1006300032B1012A0DD0022A03D0032A10D10EE0D4
:1006400000BFCA6A02F08072B2F1807F00D101203F
:1006500007E0CA6AB2F1C07F00D1012001E000E0EA
:1006600000BF36E08A69B2F5005F1BD18A6A32B1F9
:10067000012A07D0022A03D0032A11D10AE000BFC1
:1006800001200EE0CA6A02F08072B2F1807F00D1D0
:10069000012006E0CA6AB2F1C07F00D1012000E06B
:1006A00000BF16E08A6A32B1012A05D0022A04D0BE
:1006B000032A0CD103E000BF00BF012008E0CA6A92
:1006C00002F08072B2F1807F00D1012000E000BF13
:1006D00000BF7047F0B5846DD0E919657560C56ECF
:1006E00015B1D0E91C6575601026C4F202060568D4
:1006F000B54208D34FF49766C4F202060568B542C6
:1007000001D8012500E00025CDB190F85C603F25BF
:10071000B540A56005682D6825F48025066835601C
:1007200005686B608568402D04D10568AA6005687E
:10073000E9602FE00568A9600568EA602AE045F2F3
:100740000846C5F602060568B54223D345F294462D
:10075000C5F602060568B5421CD845F20445C5F643
:1007600002052D6890F85C700126BE40354345F2C5
:100770000446C5F60206356005686B608568402D45
:1007800004D10568AA600568E96003E00568A9600E
:100790000568EA60F0BD70470146486D70472DE975
:1007A000F8430446002700250020009040F2240072
:1007B000C2F2004000684FF41651B0FBF1F8A66D8C
:1007C00037681021C4F202012068884208D34FF430
:1007D0009761C4F202012068884201D8012000E03C
:1007E000002000286ED094F85C1008208840384023
:1007F00028B31021C4F20201206888420BD34FF4C1
:100800009761C4F202012068884204D82068006819
:1008100000F0040003E02068006800F0080070B1F8
:100820002068006820F004002168086094F85C10DB
:1008300008208840B060606D40F00100606594F869
:100840005C100120C0F280008840384000B31021C5
:10085000C4F20201206888420BD34FF49761C4F2BE
:1008600002012068884204D82068406900F08000B6
:1008700002E020680068002050B194F85C1001206C
:10088000C0F280008840B060606D40F0020060659A
:1008900094F85C100420C0F280008840384008B30F
:1008A0001021C4F20201206888420CD34FF49761F2
:1008B000C4F202012068884205D82068006800F070
:1008C000020003E020E120680068002050B194F8A5
:1008D0005C100420C0F280008840B060606D40F081
:1008E0000400606594F85C1010208840384050B3D4
:1008F0001021C4F20201206888420BD34FF49761A3
:10090000C4F202012068884204D82068006800F020
:10091000080003E02068006800F0040098B194F833
:100920005C1010208840B0602068006800F48020CF
:1009300080B12068006800F4002028B9206C10B154
:100940002046216C884715E0A06C98B12046A16C28
:1009500088470FE02068006800F4807028B920689C
:10096000006820F0080021680860206C10B1204663
:10097000216C884794F85C1020208840384000287B
:1009800078D01021C4F20201206888420BD34FF4C2
:100990009761C4F202012068884204D82068006888
:1009A00000F0100003E02068006800F0020000285A
:1009B00060D094F85C1020208840B06094F8350036
:1009C000042829D12068006820F0160021680860FA
:1009D0002068406920F0800021684861206C08B9D7
:1009E000A06C28B12068006820F008002168086029
:1009F00094F85C103F208840B06000BF002084F86D
:100A0000340000BF012084F83500206D10B120466D
:100A1000216D8847BDE8F8832068006800F48020D5
:100A200080B12068006800F4002028B9606C10B123
:100A30002046616C88471DE0E06BD8B12046E16B31
:100A4000884717E02068006800F4807068B9206863
:100A5000006820F010002168086000BF002084F8C2
:100A6000340000BF012084F83500E06B10B120464F
:100A7000E16B8847606D002845D0606D00F0010093
:100A8000B8B3042084F835001021C4F202012068B4
:100A900088420DD34FF49761C4F202012068884266
:100AA00006D82068006820F001002168086005E091
:100AB0002068006820F001002168086000BF0098ED
:100AC000401C0090404500D905E02068006800F017
:100AD00001000028F3D100BF00BF002084F83400DB
:100AE00000BF2068006800F0010018B1032084F8FE
:100AF000350002E0012084F83500E06C002802D0C7
:100B00002046E16C8847A4E045F20841C5F60201A1
:100B10002068884208D345F29441C5F60201206856
:100B2000884201D8012000E0002000285FD025681D
:100B30004FF4A840C5F60200006894F85C20042138
:100B40009140084000B3286800F00400E0B1286834
:100B500000F0200018B9286820F00400286045F251
:100B60000440C5F60200006894F85C20042191401E
:100B7000084345F20441C5F602010860206CB0B399
:100B80002046216C884764E04FF4A840C5F6020077
:100B9000006894F85C2002219140084040B3286826
:100BA00000F0020020B3286800F0200058B928683F
:100BB00020F00A00286000BF002084F8340000BF45
:100BC000012084F8350045F20440C5F602000068B3
:100BD00094F85C2002219140084345F20441C5F697
:100BE00002010860E06B10B12046E16B884730E0FD
:100BF0004FF4A840C5F60200006894F85C20082174
:100C00009140084028B3286800F0080008B328681D
:100C100020F00E00286045F20440C5F6020000688E
:100C200094F85C2001219140084345F20441C5F647
:100C3000020108600120606500BF002084F83400D4
:100C400000BF012084F83500E06C10B12046E16C53
:100C5000884700BFDEE62DE9F0410446002500F09C
:100C600013FB0646002714B90120BDE8F0811021CE
:100C7000C4F202012068884208D34FF49761C4F29D
:100C800002012068884201D8012000E000200028ED
:100C900079D0606A00B100BF00BF002084F8340042
:100CA00000BF022084F835001021C4F20201206840
:100CB00088420DD34FF49761C4F202012068884244
:100CC00006D82068006820F001002168086005E06F
:100CD0002068006820F00100216808600BE000F047
:100CE000D3FA801B052806D920206065032084F8EC
:100CF00035000120B9E72068006800F001000028F5
:100D0000EDD12068056848F23F00CFF6106005403D
:100D1000D4E9020108432169084361690843A169D4
:100D20000843E1690843216A08430543606A0428CF
:100D300003D1D4E90B01084305432068056020680E
:100D4000456925F00705606A0543606A04280DD1EE
:100D5000A06A0543E06A48B12046FFF764FC28B169
:100D600040206065012084F835007EE720684561F9
:100D70002046FFF7C6FB074694F85C103F208840EA
:100D8000B86056E0FFE745F20841C5F60201206869
:100D9000884208D345F29441C5F602012068884292
:100DA00001D8012000E00020D8B300BF002084F863
:100DB000340000BF022084F835002068056825F45F
:100DC0007F6525F4E045A068402801D1102105E0A9
:100DD000A068802801D1C10100E00021E06841EA5B
:100DE000D001206941EAD001606941EAD001A069DF
:100DF00041EAD0002022E16902EAD1010843216AD8
:100E000040EA111005432068056045F20841C5F627
:100E100002012068401A1421B0FBF1F08000E06567
:100E200007E0FFE740206065032084F835000120DB
:100E30001BE72046FFF77FFBA068802801D1002038
:100E400060602079216E0860D4E9191048606068FC
:100E500060B16068082809D82046FFF7B2FB00207F
:100E6000E16E0860D4E91C10486003E00020E066F1
:100E70002067606700206065012084F8350000204D
:100E8000F3E62DE9F04104460D4616461F464FF0A5
:100E9000000814B90120BDE8F08100BF94F83400C7
:100EA000012801D10220F6E7012084F8340000BFB8
:100EB00094F8350001287ED1022084F83500002006
:100EC00060651021C4F20201206888420DD34FF4FE
:100ED0009761C4F202012068884206D82068006841
:100EE00020F001002168086005E02068006820F01B
:100EF0000100216808603B46324629462046FFF73C
:100F0000E9FB1021C4F202012068884208D34FF4A3
:100F10009761C4F202012068884201D8012000E0F4
:100F20000020B0B12068006820F01E0040F01600DC
:100F3000216808602068406940F0800021684861AD
:100F4000206CB0B12068006840F00800216808609B
:100F50000FE02068006820F00E0040F00A002168D1
:100F60000860206C28B12068006840F00400216807
:100F70000860206E006800F4803028B1206E0068A0
:100F800040F48070216E0860E06E28B1E06E006869
:100F900040F48070E16E08601021C4F20201206804
:100FA00088420FD34FF49761C4F20201206888424F
:100FB00008D8206800E00CE0006840F001002168DB
:100FC000086010E02068006840F0010021680860B7
:100FD00009E000BF002084F8340000BF4FF4006037
:100FE00060654FF00108404655E770B5044600F0D3
:100FF0004BF906462546681C28B140F23400C2F27F
:1010000000400078054400BF00F03EF9801BA84274
:10101000FAD370BDF8B502460B4600210026002425
:1010200000208025C5F6000500BF24E1012707FA4E
:1010300001F61F6807EA0604B4427DD15F68022FFB
:1010400002D05F68122F1AD14FEAD10C02F12007AB
:1010500057F82C004F074FEAD76C0F2707FA0CF709
:10106000B8434FEA417C4FEADC6C1F6907FA0CF782
:1010700038434FEAD10C02F1200747F82C001068E2
:101080004FEA410C032707FA0CF7B8431F7907F022
:1010900003074FEA410C07FA0CF7384310605F680A
:1010A000012F08D05F68022F05D05F68112F02D092
:1010B0005F68122F17D190684FEA410C032707FA97
:1010C0000CF7B8434FEA410CDF6807FA0CF73843D6
:1010D0009060506801278F40B8431F79C7F300170D
:1010E0008F4038435060D0684FEA410C032707FA1D
:1010F0000CF7B8434FEA410C9F6807FA0CF73843E6
:10110000D0605F6807F08057B7F1805F95D100BF6E
:1011100044F2F447C5F602073F6847F0020744F27D
:10112000F44CC5F6020CCCF8007067463F6807F037
:101130000207009700BF00E09CE000BF4FF481670A
:10114000C5F600074FEA910C57F82C008F074FEABD
:10115000177C0F2707FA0CF7B8430027C5F60207DC
:10116000BA4201D1002748E04FF48067C5F6020774
:10117000BA4201D1012740E04FF40067C5F60207EB
:10118000BA4201D1022738E04FF44067C5F60207A2
:10119000BA4201D1032730E04FF48057C5F6020769
:1011A000BA4201D1042728E04FF4A057C5F6020740
:1011B000BA4201D1052720E04FF4C057C5F6020717
:1011C000BA4201D1062718E04FF4E057C5F60207EE
:1011D000BA4201D1072710E04FF40057C5F60207C5
:1011E000BA4201D1082708E04FF41057C5F60207AC
:1011F000BA4201D1092700E00A274FEA817C4FEA71
:101200001C7C07FA0CF738434FF48167C5F60007DA
:101210004FEA910C47F82C002868A0435F6807F458
:101220008037B7F5803F00D1204328606868A0432D
:101230005F6807F40037B7F5003F00D120436860CE
:101240004FF0B0473868A0435F6807F48017B7F5E0
:10125000801F00D120434FF0B04738607868A0432A
:101260005F6807F40017B7F5001F00D120434FF067
:10127000B0477860491C1029FFF4D8AEF8BD0AB118
:10128000018300E04183704740F22C00C2F200402D
:101290000068704740F22C00C2F20040006840F243
:1012A0003401C2F200410978084440F22C01C2F234
:1012B00000410860704710B5032000F0BFF800201F
:1012C00000F007F808B1012010BD00F02BF8002055
:1012D000FAE770B5044640F23400C2F200400078EC
:1012E0004FF47A71B1FBF0F040F22401C2F20041F8
:1012F0000968B1FBF0F5284602F0FFF808B10120BB
:1013000070BD102C0AD200222146501E00F059F860
:1013100040F23000C2F20040046001E00120EFE73B
:101320000020EDE708B500BF44F2F440C5F6020026
:10133000006840F0020044F2F441C5F60201086082
:101340000846006800F00200009000BF00BF0320C4
:1013500000F074F8002211466FF00B0000F031F835
:10136000002211466FF00A0000F02BF8002211460F
:101370006FF0090000F025F800221146501F00F020
:1013800020F800221146101F00F01BF80022114621
:10139000901E00F016F800221146501E00F011F8C1
:1013A00008BD01460846002809DB00F01F030122A2
:1013B0009A4043099B0003F1E023C3F8002100BFDA
:1013C00070472DE9F05F80460D46164604F00FFD8C
:1013D000074639462A46334601F00700C0F1070A9E
:1013E000BAF1040F02D94FF0040A01E0C0F1070A74
:1013F000D14600F1040ABAF1070F02D24FF0000AF9
:1014000001E0A0F1030AD4464FF0010A0AFA09FAF2
:10141000AAF1010A0AEA020A0AFA0CFA4FF0010BD1
:101420000BFA0CFBABF1010B0BEA030B4AEA0B04C2
:101430002146404604F0E3FCBDE8F09F00BF00F009
:1014400007024EF60C53CEF2000319684FF6FF0365
:10145000194041F0FD7343F0806343EA02214EF6E8
:101460000C53CEF20003196000BF704710B501F0B5
:10147000BBFA44F21841C5F60201096801F4706133
:101480004FF4807292FAA2F2B2FA82F2D14046F29E
:101490009E32C0F60002515CC84040F22401C2F204
:1014A000004108600846006810BD10B501F04FFA11
:1014B00044F22041C5F60201096801F070011022D2
:1014C00092FAA2F2B2FA82F2D14046F29E32C0F60D
:1014D0000002515CC84010BD70B5014600BF00BF9E
:1014E00000BF002200BF00BF44F22845C5F6020538
:1014F0002D6805F0030344F22845C5F602052D6862
:10150000C5F3053044F22C45C5F602052D6805F0FB
:10151000100444F23C45C5F602052D68C5F3CC0520
:1015200015FB04F501EE105AB8EE411AF0EE410A2F
:1015300023B1012B5BD0022B7DD17DE04FF4884598
:10154000C5F602052D68C5F3401565B34FF488450F
:10155000C5F602052D68C5F3C1064FF41045C0F26B
:10156000D03525FA06F2B2FBF0F501EE105AF8EE8E
:10157000411A4FF08C4501EE105A80EE812A44F258
:101580003845C5F602052D68C5F3080501EE105A69
:10159000B8EE411A32EE011AB7EE002A31EE021A05
:1015A00021EE810A22E04FF41045C0F2D035B5FBA0
:1015B000F0F501EE105AF8EE411A4FF08C4501EEAD
:1015C000105A80EE812A44F23845C5F602052D688E
:1015D000C5F3080501EE105AB8EE411A32EE011AB1
:1015E000B7EE002A31EE021A21EE810A6CE04FF4C8
:1015F0001065C0F23D05B5FBF0F501EE105AF8EEAE
:10160000411A4FF08C4501EE105A80EE812A44F2C7
:101610003845C5F602052D68C5F3080501EE105AD8
:10162000B8EE411A32EE011AB7EE002A31EE021A74
:1016300021EE810A48E023E04FF49055C0F27A058C
:10164000B5FBF0F501EE105AF8EE411A4FF08C455B
:1016500001EE105A80EE812A44F23845C5F60205A3
:101660002D68C5F3080501EE105AB8EE411A32EEA6
:10167000011AB7EE002A31EE021A21EE810A23E0A8
:101680004FF41065C0F23D05B5FBF0F501EE105AC0
:10169000F8EE411A4FF08C4501EE105A80EE812A87
:1016A00044F23845C5F602052D68C5F3080501EE7C
:1016B000105AB8EE411A32EE011AB7EE002A31EE96
:1016C000021A21EE810A00BF00BF44F23845C5F678
:1016D00002052D68C5F346256D1C01EE105AB8EEC3
:1016E000411AC0EE011ABCEEE11A81ED001A44F273
:1016F0003845C5F602052D68C5F306456D1C01EE9B
:10170000105AB8EE411AC0EE011ABCEEE11A81ED92
:10171000011A44F23845C5F602052D68C5F3066581
:101720006D1C01EE105AB8EE411AC0EE011ABCEE63
:10173000E11A81ED021A70BD70B5014600BF00BF0D
:1017400000BF002200BF00BF44F22845C5F60205D5
:101750002D6805F0030344F22845C5F602052D68FF
:10176000C5F3055044F22C45C5F602052D6805F475
:10177000807444F24445C5F602052D68C5F3CC05D6
:1017800015FB04F501EE105AB8EE411AF0EE410ACD
:1017900023B1012B5BD0022B7DD17DE04FF4884536
:1017A000C5F602052D68C5F3401565B34FF48845AD
:1017B000C5F602052D68C5F3C1064FF41045C0F209
:1017C000D03525FA06F2B2FBF0F501EE105AF8EE2C
:1017D000411A4FF08C4501EE105A80EE812A44F2F6
:1017E0004045C5F602052D68C5F3080501EE105AFF
:1017F000B8EE411A32EE011AB7EE002A31EE021AA3
:1018000021EE810A22E04FF41045C0F2D035B5FB3D
:10181000F0F501EE105AF8EE411A4FF08C4501EE4A
:10182000105A80EE812A44F24045C5F602052D6823
:10183000C5F3080501EE105AB8EE411A32EE011A4E
:10184000B7EE002A31EE021A21EE810A6CE04FF465
:101850001065C0F23D05B5FBF0F501EE105AF8EE4B
:10186000411A4FF08C4501EE105A80EE812A44F265
:101870004045C5F602052D68C5F3080501EE105A6E
:10188000B8EE411A32EE011AB7EE002A31EE021A12
:1018900021EE810A48E023E04FF49055C0F27A052A
:1018A000B5FBF0F501EE105AF8EE411A4FF08C45F9
:1018B00001EE105A80EE812A44F24045C5F6020539
:1018C0002D68C5F3080501EE105AB8EE411A32EE44
:1018D000011AB7EE002A31EE021A21EE810A23E046
:1018E0004FF41065C0F23D05B5FBF0F501EE105A5E
:1018F000F8EE411A4FF08C4501EE105A80EE812A25
:1019000044F24045C5F602052D68C5F3080501EE11
:10191000105AB8EE411A32EE011AB7EE002A31EE33
:10192000021A21EE810A00BF00BF44F24045C5F60D
:1019300002052D68C5F346256D1C01EE105AB8EE60
:10194000411AC0EE011ABCEEE11A81ED001A44F210
:101950004045C5F602052D68C5F306456D1C01EE30
:10196000105AB8EE411AC0EE011ABCEEE11A81ED30
:10197000011A44F24045C5F602052D68C5F3066517
:101980006D1C01EE105AB8EE411AC0EE011ABCEE01
:10199000E11A81ED021A70BD2DE9F04104460025DF
:1019A0000026206800F00060B0F1006F3AD1606E50
:1019B00048B1B0F5801F13D0B0F5001F16D0B0F5B8
:1019C000401F1BD119E044F22C40C5F6020000680C
:1019D00040F4003044F22C41C5F6020108600FE0EB
:1019E0000221201D02F08EFD054609E0022104F1CE
:1019F000240002F042FE054602E001E0012500BF9E
:101A000000BF75B944F25040C5F60200006820F4EA
:101A10004010616E084344F25041C5F6020108606F
:101A200000E02E43208800F48070B0F5807F38D12C
:101A3000606D052821D246F23841C0F60001D1E898
:101A400000F044F22C40C5F60200006840F400307B
:101A500044F22C41C5F60201086010E00021201D6F
:101A600002F050FD05460AE0002104F1240002F0D6
:101A700004FE054603E002E001E0012500BF00BFCF
:101A800075B944F25040C5F60200006820F0070026
:101A9000616D084344F25041C5F60201086000E060
:101AA0002E43208800F40070B0F5007F3DD1A06D7A
:101AB00080281DD003DC40B1402822D112E0C0288C
:101AC0001DD0B0F5807F1CD11AE044F22C40C5F641
:101AD0000200006840F4003044F22C41C5F60201D7
:101AE000086010E00021201D02F00CFD05460AE010
:101AF000002104F1240002F0C0FD054603E002E0ED
:101B000001E0012500BF00BF75B944F25040C5F6A1
:101B10000200006820F4E070A16D084344F25041D7
:101B2000C5F60201086000E02E43208800F48060C2
:101B3000B0F5806F42D1D4F8A400B0F5800F1FD06B
:101B400004DC50B1B0F5001F23D113E0B0F5C00F95
:101B50001DD0B0F5000F1CD11AE044F22C40C5F6A0
:101B60000200006840F4003044F22C41C5F6020146
:101B7000086010E00021201D02F0C4FC05460AE0C8
:101B8000002104F1240002F078FD054603E002E0A4
:101B900001E0012500BF00BF7DB944F25840C5F601
:101BA0000200006820F46000D4F8A410084344F256
:101BB0005841C5F60201086000E02E43208800F479
:101BC0000060B0F5006F42D1D4F8A800B0F1007FFA
:101BD0001FD004DC50B1B0F1807F23D113E0B0F10D
:101BE000407F1DD0B0F1806F1CD11AE044F22C4030
:101BF000C5F60200006840F4003044F22C41C5F6FE
:101C00000201086010E00021201D02F07BFC054667
:101C10000AE0002104F1240002F02FFD054603E054
:101C200002E001E0012500BF00BF7DB944F2584049
:101C3000C5F60200006820F0E060D4F8A810084360
:101C400044F25841C5F60201086000E02E432068C6
:101C500000F00070B0F1007F31D1A06CD0B110283D
:101C600004D020280FD0302815D112E044F22C40A7
:101C7000C5F60200006840F4003044F22C41C5F67D
:101C80000201086009E00221201D02F03BFC05462C
:101C900003E002E001E0012500BF00BF75B944F296
:101CA0004C40C5F60200006820F03000A16C0843EB
:101CB00044F24C41C5F60201086000E02E43208842
:101CC00000F48050B0F5805F40D1E06DB0F5005F6A
:101CD0001FD004DC50B1B0F5805F23D113E0B0F524
:101CE000405F1DD0B0F5804F1CD11AE044F22C406B
:101CF000C5F60200006840F4003044F22C41C5F6FD
:101D00000201086010E00021201D02F0FBFB0546E7
:101D10000AE0002104F1240002F0AFFC054603E0D4
:101D200002E001E0012500BF00BF75B944F2504058
:101D3000C5F60200006820F4E040E16D084344F27B
:101D40005041C5F60201086000E02E43208800F4EF
:101D50000050B0F5005F38D1206EB0F5403F1DD087
:101D600007DC68B1B0F5803F0BD0B0F5003F18D16B
:101D70000DE0B0F5802F12D0B0F5A02F11D10FE0FB
:101D800011E00121201D02F0BDFB05460BE0012101
:101D900004F1240002F071FC054604E003E002E0D7
:101DA00001E0012500BF00BF75B944F25040C5F6FF
:101DB0000200006820F4E020216E084344F2504104
:101DC000C5F60201086000E02E43208800F4804040
:101DD000B0F5804F3AD1D4F8AC00B0F1405F1DD0DF
:101DE00007DC68B1B0F1805F0BD0B0F1005F18D1B3
:101DF0000DE0B0F1804F12D0B0F1A04F11D10FE043
:101E000011E00121201D02F07DFB05460BE00121C0
:101E100004F1240002F031FC054604E003E002E096
:101E200001E0012500BF00BF7DB944F25840C5F66E
:101E30000200006820F0E040D4F8AC10084344F2FF
:101E40005841C5F60201086000E02E43208800F4E6
:101E50000040B0F5004F30D1E06EC8B1B0F1805F06
:101E600003D0B0F1005F14D10CE044F22C40C5F671
:101E70000200006840F4003044F22C41C5F6020133
:101E8000086008E00121201D02F03CFB054602E04D
:101E900001E0012500BF00BF75B944F25040C5F60E
:101EA0000200006820F04050E16E084344F25041C7
:101EB000C5F60201086000E02E43206800F0807043
:101EC000B0F1807F31D1606CD0B1012804D00228FC
:101ED0000FD0032815D112E044F22C40C5F60200C1
:101EE000006840F4003044F22C41C5F6020108605D
:101EF00009E00221201D02F005FB054603E002E097
:101F000001E0012500BF00BF75B944F24C40C5F6A1
:101F10000200006820F00300616C084344F24C4169
:101F2000C5F60201086000E02E43206800F480003E
:101F3000B0F5800F7DD14FF49040C5F602000068E7
:101F400040F480704FF49041C5F602010860FFF73D
:101F50009BF9074606E0FFF797F9C01B642801D9F3
:101F6000032508E04FF49040C5F60200006800F435
:101F700080700028EFD000BF85BB44F27040C5F6EA
:101F80000200006800F44070B4F8B01001F4407131
:101F900088421AD044F27040C5F60200006820F46E
:101FA000407844F27040C5F60200006840F480308A
:101FB00044F27041C5F6020108600846006820F44A
:101FC000803008600846C0F80080D4F8B000B0F552
:101FD000807F17D1FFF758F9074609E051E0FFF776
:101FE00053F9C01B41F28831884201D9032508E02A
:101FF00044F27040C5F602000068C0F340000028BB
:10200000EDD000BFD5BB00BFB4F8B00000F4407005
:10201000B0F5407F16D144F21040C5F602000068CA
:1020200020F47C50D4F8B01021F4407121F07041BC
:1020300000E027E040EA111044F21041C5F6020129
:1020400008600BE044F21040C5F60200006820F47E
:102050007C5044F21041C5F60201086044F2704021
:10206000C5F602000068B4F8B010C1F30B010843D4
:1020700044F27041C5F60201086003E0FFE72E4319
:1020800000E02E43207800F0010088B3A06F1828EC
:1020900019D005DC48B1082808D0102816D10BE06B
:1020A000202811D0282811D10FE011E00121201D96
:1020B00002F028FA05460BE0012104F1240002F0A9
:1020C000DCFA054604E003E002E001E0012500BF80
:1020D00000BF75B944F25440C5F60200006820F014
:1020E0003800A16F084344F25441C5F6020108606C
:1020F00000E02E43207800F0020002282DD1606F0E
:10210000062816D246F23D41C0F60001D1E800F0A3
:1021100011E00121201D02F0F5F905460BE0012137
:1021200004F1240002F0A9FA054604E003E002E00D
:1021300001E0012500BF00BF75B944F25440C5F667
:102140000200006820F00700616F084344F2544128
:10215000C5F60201086000E02E43207800F004007C
:1021600004282FD1D4F89000062816D246F2434115
:10217000C0F60001D1E800F011E00121201D02F0BD
:10218000C1F905460BE0012104F1240002F075FAC3
:10219000054604E003E002E001E0012500BF00BFC6
:1021A0007DB944F25840C5F60200006820F00700EF
:1021B000D4F89010084344F25841C5F60201086073
:1021C00000E02E43207800F0200020283AD1D4F8F7
:1021D0008C00B0F1405F1DD007DC68B1B0F1805FCA
:1021E0000BD0B0F1005F18D10DE0B0F1804F12D0EC
:1021F000B0F1A04F11D10FE011E00021201D02F03D
:1022000081F905460BE0022104F1240002F035FAC1
:10221000054604E003E002E001E0012500BF00BF45
:102220007DB944F25440C5F60200006820F0E04059
:10223000D4F88C10084344F25441C5F602010860FA
:1022400000E02E43207800F0400040283AD1D4F836
:102250009800B0F5406F1DD007DC68B1B0F5806F15
:102260000BD0B0F5006F18D10DE0B0F5805F12D043
:10227000B0F5A05F11D10FE011E00021201D02F0A8
:1022800041F905460BE0022104F1240002F0F5F9C2
:10229000054604E003E002E001E0012500BF00BFC5
:1022A0007DB944F25840C5F60200006820F4E050C1
:1022B000D4F89810084344F25841C5F6020108606A
:1022C00000E02E43207800F0800080283AD1D4F836
:1022D0009C00B0F5C04F1DD007DC68B1B0F5005FC1
:1022E0000BD0B0F5804F18D10DE0B0F5004F12D0F3
:1022F000B0F5204F11D10FE011E00021201D02F0B8
:1023000001F905460BE0022104F1240002F0B5F9C1
:10231000054604E003E002E001E0012500BF00BF44
:102320007DB944F25840C5F60200006820F46040D0
:10233000D4F89C10084344F25841C5F602010860E5
:1023400000E02E43207800F0080008281AD1D4F8C5
:102350008000B0F5805F06D1022104F1240002F074
:102360008CF906430EE044F25440C5F602000068C2
:1023700020F44050D4F88010084344F25441C5F68C
:1023800002010860207800F0100010281AD1D4F85B
:102390009400B0F5807F06D1022104F1240002F000
:1023A0006CF906430EE044F25840C5F6020000689E
:1023B00020F44070D4F89410084344F25841C5F614
:1023C00002010860206800F40020B0F5002F2CD135
:1023D000D4F8A00030B1B0F5803F09D0B0F5003F8F
:1023E0000ED10CE00021201D02F08CF8054609E01A
:1023F000022104F1240002F040F9054602E001E068
:10240000012500BF00BF7DB944F25840C5F6020067
:10241000006820F44030D4F8A010084344F258413A
:10242000C5F60201086000E02E43206800F4802019
:10243000B0F5802F35D1D4F88400B0F5801F06D0D8
:10244000B0F5001F10D0B0F5401F15D113E044F2D5
:102450002C40C5F60200006840F4003044F22C41E4
:10246000C5F60201086009E0012104F1240002F030
:1024700004F9054602E001E0012500BF00BF7DB977
:1024800044F25440C5F60200006820F44010D4F82D
:102490008410084344F25441C5F60201086000E08C
:1024A0002E43206800F48030B0F5803F2CD1E06CE2
:1024B00018B1B0F5803F13D10CE044F22C40C5F6C2
:1024C0000200006840F4003044F22C41C5F60201DD
:1024D000086007E00221201D02F014F8054601E023
:1024E000012500BF00BF75B944F24C40C5F602009B
:1024F000006820F48030E16C084344F24C41C5F69A
:102500000201086000E02E43206800F00050B0F1A6
:10251000005F05D1022104F1240002F0AEF8064369
:10252000206800F40030B0F5003F2FD1E06FC0B15B
:10253000B0F5807F06D0B0F5007F10D0B0F5407FB9
:1025400010D10DE044F22C40C5F60200006840F4C2
:10255000003044F22C41C5F60201086004E003E0BB
:1025600002E001E0012500BF00BF75B944F254400C
:10257000C5F60200006820F44070E16F084344F2A1
:102580005441C5F60201086000E02E43206800F4C3
:102590008010B0F5801F0DD144F25040C5F6020006
:1025A000006820F00040216F084344F25041C5F616
:1025B00002010860206800F08050B0F1805F0ED109
:1025C00044F21040C5F60200006820F48040D4F8C0
:1025D000B410084344F21041C5F6020108602068B7
:1025E00000F40010B0F5001F0DD144F25040C5F6C4
:1025F0000200006820F08070A16E084344F2504150
:10260000C5F602010860206800F08040B0F1804FFC
:1026100017D100BF44F21040C5F60200006820F454
:10262000004044F21041C5F6020108600846006807
:10263000D4F8B810084344F21041C5F6020108600E
:1026400000BF206800F00040B0F1004F0DD144F20F
:102650004C40C5F60200006820F04050216D084350
:1026600044F24C41C5F60201086016B90020BDE8ED
:10267000F0810120FBE770B504460D4600264FF4BB
:102680000050C5F20020006800F00700A84214D2F4
:102690004FF40050C5F20020006820F007002843E6
:1026A0004FF40051C5F2002108600846006800F0B0
:1026B0000700A84201D0012070BD207800F0020080
:1026C00002280DD144F21840C5F60200006820F03F
:1026D0000F00E168084344F21841C5F602010860A2
:1026E000207800F00100002865D044F21840C5F6BB
:1026F0000200006820F47060A168084344F21841A9
:10270000C5F6020108606068022809D14FF48840CC
:10271000C5F602000068C0F3404028BB0120CBE7AB
:102720006068032809D14FF48840C5F602000068AC
:10273000C0F34060C0B90120BEE76068012809D13C
:102740004FF48840C5F602000068C0F3002058B975
:102750000120B1E74FF48840C5F602000068C0F3DD
:10276000800008B90120A7E744F21040C5F6020036
:10277000006820F007006168084344F21041C5F684
:1027800002010860FEF780FD06466068022813D14A
:1027900008E0FEF779FD801B41F28831884201D9BB
:1027A000032089E744F21040C5F60200006800F0FB
:1027B00038001028EDD140E06068032813D108E00C
:1027C000FEF762FD801B41F28831884201D9032067
:1027D00072E744F21040C5F60200006800F03800CD
:1027E0001828EDD129E06068012813D108E0FEF730
:1027F0004BFD801B41F28831884201D903205BE701
:1028000044F21040C5F60200006800F038000828C5
:10281000EDD112E008E0FEF737FD801B41F2883170
:10282000884201D9032047E744F21040C5F6020070
:10283000006800F038000028EDD14FF40050C5F2D8
:102840000020006800F00700A84214D94FF400509F
:10285000C5F20020006820F0070028434FF4005123
:10286000C5F2002108600846006800F00700A84291
:1028700001D0012020E7207800F0040004280DD1C9
:1028800044F21840C5F60200006820F0700021698B
:10289000084344F21841C5F602010860207800F0B0
:1028A000080008280DD144F21C40C5F6020000685B
:1028B00020F070006169084344F21C41C5F6020132
:1028C0000860207800F0100010280DD144F21C4060
:1028D000C5F60200006820F4E060A169084344F2F4
:1028E0001C41C5F602010860207800F02000202875
:1028F0000DD144F22040C5F60200006820F07000BF
:10290000E169084344F22041C5F60201086000F085
:102910006BF844F21841C5F60201096801F47061D0
:102920004FF4807292FAA2F2B2FA82F2D14046F2E9
:102930009E32C0F60002515CC84040F22401C2F24F
:10294000004108600020FEF7C4FC0020B4E610B58A
:10295000FEF78CFD44F21841C5F60201096801F04A
:102960000F01012292FAA2F2B2FA82F2D14046F2AB
:102970009E32C0F60002515CC84040F22801C2F20B
:10298000004108600846006810BD10B5FFF7DFFF82
:1029900044F21C41C5F60201096801F070011022E1
:1029A00092FAA2F2B2FA82F2D14046F29E32C0F618
:1029B0000002515CC84010BD10B5FFF7C8FF44F2DB
:1029C0001C41C5F60201096801F4E0614FF4807210
:1029D00092FAA2F2B2FA82F2D14046F29E32C0F6E8
:1029E0000002515CC84010BD70B5012501EE105ABF
:1029F0000023012100240022002500EE905A00EE61
:102A0000105A002044F21045C5F602052D6805F065
:102A1000380535B1082D1FD0102D22D0182D7CD1AE
:102A200024E04FF48845C5F602052D68C5F340152E
:102A30006DB14FF48845C5F602052D68C5F3C10692
:102A40004FF41045C0F2D03525FA06F003E04FF4FC
:102A50001040C0F2D03016E14FF41060C0F23D00DB
:102A600011E14FF49050C0F27A000CE144F2284595
:102A7000C5F602052D6805F0030344F22845C5F6A6
:102A800002052D68C5F3051144F22C45C5F6020573
:102A90002D6805F0010444F23445C5F602052D68A1
:102AA000C5F3CC0515FB04F501EE905AF8EE611A5A
:102AB000F0EE610A23B1012B5ED0022B7ED181E0C2
:102AC0004FF48845C5F602052D68C5F340152DB3B2
:102AD0004FF48845C5F602052D68C5F3C1064FF4CD
:102AE0001045C0F2D03525FA06F2B2FBF1F501EE41
:102AF000905AB8EE612A4FF08C4501EE905AC0EE24
:102B0000A12A44F23045C5F602052D68C5F3080533
:102B100001EE905AF8EE611A01E0AFE008E072EEC3
:102B2000A11AF7EE002A71EEA21A22EE210A22E083
:102B30004FF41045C0F2D035B5FBF1F501EE905AD7
:102B4000B8EE612A4FF08C4501EE905AC0EEA12AF2
:102B500044F23045C5F602052D68C5F3080501EEBF
:102B6000905AF8EE611A72EEA11AF7EE002A71EE91
:102B7000A21A22EE210A6DE04FF41065C0F23D0565
:102B8000B5FBF1F501EE905AB8EE612A4FF08C4595
:102B900001EE905AC0EEA12A44F23045C5F6020576
:102BA0002D68C5F3080501EE905AF8EE611A72EE31
:102BB000A11AF7EE002A71EEA21A00E026E022EE3A
:102BC000210A47E04FF49055C0F27A05B5FBF1F5C4
:102BD00001EE905AB8EE612A4FF08C4501EE905A02
:102BE000C0EEA12A44F23045C5F602052D68C5F3B2
:102BF000080501EE905AF8EE611A72EEA11AF7EE8E
:102C0000002A71EEA21A22EE210A23E04FF4106589
:102C1000C0F23D05B5FBF1F501EE905AB8EE612A20
:102C20004FF08C4501EE905AC0EEA12A44F2304597
:102C3000C5F602052D68C5F3080501EE905AF8EEB9
:102C4000611A72EEA11AF7EE002A71EEA21A22EEB4
:102C5000210A00BF00BF44F23045C5F602052D68C9
:102C6000C5F346256D1C01EE105AF8EE411A80EEB0
:102C7000212AFCEEC21A11EE900A04E04FF4106013
:102C8000C0F23D0000BF00BF70BD70B50446002516
:102C9000207800F0010000287CD044F21040C5F6F6
:102CA0000200006800F03800102811D044F21040F3
:102CB000C5F60200006800F03800182816D144F26A
:102CC0002840C5F60200006800F0030002280DD17C
:102CD0004FF48840C5F602000068C0F34040002869
:102CE0007ED0606800287BD1012070BD00BF606885
:102CF000B0F5803F0CD14FF48840C5F60200006863
:102D000040F480304FF48841C5F6020108603AE093
:102D1000606888B94FF48840C5F60200006820F466
:102D200080304FF48841C5F602010860084600680B
:102D300020F48020086026E06068B0F5A02F11D153
:102D40004FF48840C5F60200006840F480204FF43C
:102D50008841C5F6020108600846006840F48030EA
:102D6000086010E04FF48840C5F60200006820F4C7
:102D700080304FF48841C5F60201086008460068BB
:102D800020F48020086000BF6068A8B1FEF77CFADC
:102D9000054607E024E0FEF777FA401B642801D9D6
:102DA0000320A2E74FF48840C5F602000068C0F394
:102DB00040400028EFD013E0FEF766FA054606E033
:102DC000FEF762FA401B642801D903208DE74FF417
:102DD0008840C5F602000068C0F340400028EFD1EB
:102DE000207800F0020002285DD144F21040C5F6C0
:102DF0000200006800F0380080B144F21040C5F6CF
:102E00000200006800F0380018284DD144F2284034
:102E1000C5F60200006800F00300F0BB4FF48840E4
:102E2000C5F602000068C0F3800018B1E06808B978
:102E300001205AE74FF48840C5F60200006820F0F0
:102E40001900E16808434FF48841C5F602010860A3
:102E5000FEF71AFA054606E0FEF716FA401B0228AE
:102E600001D9032041E74FF48840C5F6020000680D
:102E7000C0F380000028EFD044F20440C5F6020001
:102E8000006820F47C304FF47C3292FAA2F2B2FA5D
:102E900082F221699140084300E005E044F20441D8
:102EA000C5F6020108605AE0E068B8B34FF4884004
:102EB000C5F60200006820F01900E16808434FF4ED
:102EC0008841C5F602010860FEF7DEF9054606E016
:102ED000FEF7DAF9401B022801D9032005E74FF479
:102EE0008840C5F602000068C0F380000028EFD0DB
:102EF00044F20440C5F60200006820F47C304FF430
:102F00007C3292FAA2F2B2FA82F22169914008432D
:102F100044F20441C5F60201086020E0FFE74FF4E7
:102F20008840C5F60200006820F001004FF4884197
:102F3000C5F602010860FEF7A7F9054606E0FEF7B0
:102F4000A3F9401B022801D90320CEE64FF48840A4
:102F5000C5F602000068C0F380000028EFD1207899
:102F600000F0100010283CD144F21040C5F60200D9
:102F7000006800F03800082811D044F21040C5F66F
:102F80000200006800F0380018282BD144F22840D5
:102F9000C5F60200006800F00300012822D14FF4BA
:102FA0008840C5F602000068C0F3002020B1E06947
:102FB000802801D0012098E644F20440C5F60200C2
:102FC000006820F0F8404FF0F84292FAA2F2B2FA0C
:102FD00082F2216A9140084344F20441C5F602019D
:102FE000086058E0E069A8B34FF48840C5F60200D5
:102FF000006840F080004FF48841C5F60201086087
:10300000FEF742F9054606E0FEF73EF9401B0228AE
:1030100001D9032069E64FF48840C5F60200006834
:10302000C0F300200028EFD044F20440C5F60200AF
:10303000006820F0F8404FF0F84292FAA2F2B2FA9B
:1030400082F2216A9140084344F20441C5F602012C
:10305000086020E0FFE74FF48840C5F602000068F2
:1030600020F080004FF48841C5F602010860FEF7A9
:103070000BF9054606E0FEF707F9401B022801D9C7
:10308000032032E64FF48840C5F602000068C0F322
:1030900000200028EFD1207800F00800082842D155
:1030A000606900B344F27440C5F60200006840F065
:1030B000010044F27441C5F602010860FEF7E4F82D
:1030C000054606E0FEF7E0F8401B022801D9032080
:1030D0000BE644F27440C5F602000068C0F34000FD
:1030E0000028EFD01FE044F27440C5F602000068EB
:1030F00020F0010044F27441C5F602010860FEF7B9
:10310000C3F8054606E0FEF7BFF8401B022801D9C8
:103110000320EAE544F27440C5F602000068C0F3FB
:1031200040000028EFD1207800F02000202842D174
:10313000A06900B34FF48840C5F60200006840F46F
:1031400080504FF48841C5F602010860FEF79CF8F4
:10315000054606E0FEF798F8401B022801D9032037
:10316000C3E54FF48840C5F602000068C0F3403064
:103170000028EFD01FE04FF48840C5F60200006839
:1031800020F480504FF48841C5F602010860FEF734
:103190007BF8054606E0FEF777F8401B022801D9C8
:1031A0000320A2E54FF48840C5F602000068C0F392
:1031B00040300028EFD1207800F00400042871D1BD
:1031C0004FF49040C5F60200006840F480704FF460
:1031D0009041C5F602010860FEF756F8054606E084
:1031E000FEF752F8401B642801D903207DE54FF417
:1031F0009040C5F60200006800F480700028EFD00F
:1032000000BFA06801280CD144F27040C5F602004E
:10321000006840F0010044F27041C5F60201086008
:1032200039E0A06888B944F27040C5F60200006831
:1032300020F0010044F27041C5F602010860084622
:10324000006820F00400086025E0A068052811D17E
:1032500044F27040C5F60200006840F0040044F2F9
:103260007041C5F6020108600846006840F00100A0
:10327000086010E044F27040C5F60200006820F0DB
:10328000010044F27041C5F602010860084600687A
:1032900020F00400086000BFA068B8B1FDF7F4FF9B
:1032A000054609E028E0FDF7EFFF401B41F28831B9
:1032B000884201D9032018E544F27040C5F60200A7
:1032C0000068C0F340000028EDD015E0FDF7DCFFFA
:1032D000054608E0FDF7D8FF401B41F288318842DF
:1032E00001D9032001E544F27040C5F602000068F0
:1032F000C0F340000028EDD1606A00287DD044F280
:103300001040C5F60200006800F03800182875D09B
:10331000606A022873D14FF48840C5F60200006845
:1033200020F080704FF48841C5F602010860FDF777
:10333000ABFF054606E0FDF7A7FF401B022801D9B9
:103340000320D2E44FF48840C5F602000068C0F3C1
:1033500040600028EFD100BFD4E90A1041EA001014
:1033600044F22841C5F60201096821F0F30121F475
:103370004071084344F22841C5F602010860208EDE
:10338000401EC0F30800616B491E4FF47E4202EA02
:1033900041210843218F491ED20102EA014108431D
:1033A0003C21095D491E120202EA0161084344F210
:1033B0003041C5F60201086000BF081D006820F416
:1033C000FF6020F478404FF6F87292FAA2F2B2FA57
:1033D00082F2A16C9140084344F23441C5F60201E7
:1033E000086044F22C40C5F60200006820F00C0092
:1033F000216C084344F22C4102E067E064E042E0C3
:10340000C5F6020108600846006820F00200616C01
:10341000084344F22C41C5F60201086008460068E2
:1034200040F4803008600846006840F400300860CE
:103430000846006840F4802008600846006840F0B4
:10344000010008604FF48840C5F60200006840F0B3
:1034500080704FF48841C5F602010860FDF714FF43
:10346000054606E0FDF710FF401B022801D90320A6
:103470003BE44FF48840C5F602000068C0F34060AA
:103480000028EFD022E04FF48840C5F60200006823
:1034900020F080704FF48841C5F602010860FDF706
:1034A000F3FE054606E0FDF7EFFE401B022801D9BA
:1034B00003201AE44FF48840C5F602000068C0F308
:1034C00040600028EFD101E001200EE400200CE470
:1034D000042808D14FF0E021096941F004014FF0C0
:1034E000E022116107E04FF0E021096921F00401B9
:1034F0004FF0E02211617047704770B504462546D1
:10350000681EB0F1807F01D301200FE0681E4FF0EC
:10351000E02148610F214FF0FF3002F070FC0020E5
:103520004FF0E021886107200861002070BD10B5D0
:10353000FFF7E2FF10BD10B50346002200BF93F86D
:103540003C00012801D1022010BD012083F83C007D
:1035500000BF22F0FF00CC6840EA040222F4407071
:103560008C6840EA040222F480604C6840EA04025D
:1035700022F400600C6840EA040222F480500C69D6
:1035800040EA040222F400504C6940EA040222F4AA
:1035900080408C6A40EA040222F470200C8B40EADE
:1035A00004420024C4F201041868A04206D04FF47B
:1035B0008064C4F201041868A0420ED122F47000A5
:1035C0008C8C40EA045222F08070CC6940EA0402FC
:1035D00022F000700C6A40EA04021868426400BFDE
:1035E000002083F83C0000BF00BFADE730B50246C5
:1035F0000B4600BF92F83C00012801D1022030BDEB
:10360000012082F83C0000BF10684168106884689F
:103610000025C4F201051068A84206D04FF4806569
:10362000C4F201051068A84203D121F47001586862
:10363000014321F070011868014324F08004986868
:103640000443106841601068846000BF002082F865
:103650003C0000BF00BFD2E710B504460CB9012002
:1036600010BD94F83D0028B9002084F83C002046A5
:1036700000F00CF8022084F83D00211D206801F0C4
:10368000B8F9012084F83D000020E9E708B50022E0
:10369000C4F201020168914213D100BF44F2F0412B
:1036A000C5F60201096841F0010144F2F042C5F695
:1036B000020211601146096801F00101009100BF8A
:1036C00083E00168B1F1804F13D100BF44F2E841BB
:1036D000C5F60201096841F0010144F2E842C5F66D
:1036E000020211601146096801F00101009100BF5A
:1036F0006BE04FF48062C4F200020168914213D182
:1037000000BF44F2E841C5F60201096841F0020138
:1037100044F2E842C5F6020211601146096801F060
:103720000201009100BF50E04FF40062C4F20002B9
:103730000168914213D100BF44F2E841C5F602018D
:10374000096841F0040144F2E842C5F60202116042
:103750001146096801F00401009100BF35E04FF403
:103760004062C4F200020168914213D100BF44F2EA
:10377000E841C5F60201096841F0080144F2E84257
:10378000C5F6020211601146096801F008010091B6
:1037900000BF1AE04FF48062C4F201020168914256
:1037A00013D100BF44F2F041C5F60201096841F0AF
:1037B000020144F2F042C5F60202116011460968A6
:1037C00001F00201009100BF00BF08BD01460220C8
:1037D00081F83D000868008840F001000A68108008
:1037E000012081F83D00002070472DE9F04104469A
:1037F0000D46002600BF94F83C00012802D10220AB
:10380000BDE8F081012084F83C0000BF022084F86C
:103810003D002068866826F0770626F4441626F4D4
:103820007F4620688660286850283FD00CDC20281E
:1038300064D004DC002857D0102869D159E0302822
:1038400061D0402864D145E0602839D070280FD07D
:10385000B0F5805F03D0B0F5005F59D119E0206862
:10386000806820F0070020F480302168886050E0F4
:10387000D5E902136A68206801F052F92068866869
:1038800026F0770626F4441646F077062068866010
:103890003FE0D5E902136A68206801F041F9206829
:1038A000806840F480402168886032E0EA68696896
:1038B000206801F0A0FB5021206801F03DF928E0CC
:1038C000EA686968206801F0ABFB6021206801F0BC
:1038D00033F91EE0EA686968206801F08CFB40213A
:1038E000206801F029F914E00021206801F024F992
:1038F0000FE01021206801F01FF90AE02021206864
:1039000001F01AF905E03021206801F015F900E016
:1039100000BF00BF012084F83D0000BF002084F8F4
:103920003C0000BF00BF6BE710B586B00446002125
:10393000C4F201012068884211D140150190022093
:10394000029000200390032004900120059001A91B
:103950004FF48050C5F60200FDF75CFB2BE02068B9
:10396000B0F1804F10D12020019002200290002061
:103970000390032004900120059001A90020C5F6C2
:103980000200FDF747FB16E04FF48061C4F200012E
:10399000206888420FD14020019002200290002030
:1039A0000390032004900220059001A90020C5F691
:1039B0000200FDF72FFB06B010BD70B504460D46A2
:1039C000164600BF94F83C00012801D1022070BDCA
:1039D000012084F83C0000BF022084F83D000C2E3A
:1039E00051D005DC4EB1042E1ED0082E7AD133E022
:1039F000102E60D0142EF9D175E02946206801F010
:103A0000A7F82068806940F0080021688861206874
:103A1000806920F004002168886120688069296934
:103A200008432168886177E02946206801F0FAF8A8
:103A30002068806940F4006021688861206880699E
:103A400020F480602168886120688069296940EAE3
:103A50000120216888615FE02946206801F051F962
:103A60002068C06940F008002168C8612068C0690A
:103A700020F004002168C8612068C06929690843F2
:103A80002168C86148E02946206801F0A6F920684D
:103A9000C06940F400602168C8612068C06920F4F2
:103AA00080602168C8612068C069296940EA0120F6
:103AB0002168C86130E02946206801F0CDF920680E
:103AC000406D40F00800216848652068406D20F096
:103AD0000400216848652068406D29690843216811
:103AE000486519E017E02946206801F0F1F92068DF
:103AF000406D40F40060216848652068406D20F406
:103B00008060216848652068406D296940EA01208D
:103B10002168486500E000BF00BF012084F83D0037
:103B200000BF002084F83C0000BF00BF4FE710B585
:103B300004460CB9012010BD94F83D0028B90020BE
:103B400084F83C00204600F00CF8022084F83D0088
:103B5000211D206800F04DFF012084F83D00002069
:103B6000E9E7704730B504460D4601222946206832
:103B700000F0C8FF0021C4F20101206888421BD078
:103B80004FF48061C4F201012068884214D04FF4E0
:103B90008041C4F20101206888420DD04FF4884171
:103BA000C4F201012068884206D04FF49041C4F26B
:103BB00001012068884201D1012000E0002028B1E5
:103BC0002068406C40F40040216848642068008808
:103BD00040F0010021680880002030BD70B5044627
:103BE0000D4600BF94F83C00012801D1022070BDB1
:103BF000012084F83C0000BF022084F83D002946E3
:103C0000204601F0A2F92068C06820F04000216839
:103C1000C8602068C06820F480402168C860012026
:103C200084F83D0000BF002084F83C0000BF00BFC6
:103C3000DDE7704710B504460CB9012010BDA0693E
:103C400000B100E000BF94F8790028B9002084F8A2
:103C50007800204600F02AF8242084F879002068B3
:103C6000006820F0010021680860204601F00FFB89
:103C7000012800D1E2E7606B10B1204601F0E6F9BF
:103C80002068406820F4904021684860206880687F
:103C900020F02A00216888602068006840F0010058
:103CA00021680860204601F046FAC7E710B586B0E3
:103CB00004464FF49841C4F20001206888427DD147
:103CC00000BF44F2E840C5F60200006840F400205E
:103CD00044F2E841C5F6020108600846006800F4B5
:103CE0000020009000BF00BF03200190022002903E
:103CF00000200390032004900820059001A94FF4B0
:103D00004060C5F60200FDF785F91020C4F20200FC
:103D100040F24421C2F2004108603F204860002187
:103D200040F24420C2F200408160C1604FF48061E3
:103D300001610021416181614FF48071C161002105
:103D400001624162FCF787FF30B1742146F20840FE
:103D5000C0F6000002F049F800BF40F24420C2F271
:103D600000406067846300BF2820C4F2020040F274
:103D7000BC21C2F20041086040204860402140F26E
:103D8000BC20C2F2004081600021C1604FF480611C
:103D900001610021416181614FF48071C1610021A5
:103DA00001624162FCF757FF30B1862146F20840BC
:103DB000C0F6000002F019F800BF00E006E040F293
:103DC000BC20C2F200402067846300BF06B010BD73
:103DD00070B504460E46154694F87A0020284CD15A
:103DE00006B10DB9012070BD00BF94F8780001281C
:103DF00001D10220F7E7012084F8780000BF666651
:103E0000A4F868500020E067222084F87A0045F288
:103E10000720C0F60000616FC86345F24D20C0F670
:103E20000000616F086445F2AB10C0F60000616FDE
:103E3000C8640020616F0865236803F124012B46E4
:103E4000626E606FFDF71DF800BF002084F87800F7
:103E500000BF2068006840F4807021680860206816
:103E6000806840F00100216888602068806840F028
:103E70004000216888600020B5E70220B3E700BF5A
:103E80007047704700BFFEE708B500BF44F2D84056
:103E9000C5F60200006840F0010044F2D841C5F6C2
:103EA000020108600846006800F00100009000BFB1
:103EB00000BF002211460B20FDF783FA0B20FDF70F
:103EC00070FA002211460C20FDF77BFA0C20FDF75A
:103ED00068FA08BD00B587B000BF44F2E040C5F6FF
:103EE0000200006840F0800044F2E041C5F60201A3
:103EF00008600846006800F08000019000BF00BF25
:103F000000BF0846006840F00100086008460068ED
:103F100000F00100019000BF00BF00BF084600682C
:103F200040F0200008600846006800F02000019082
:103F300000BF00BF00BF0846006840F010000860E6
:103F40000846006800F01000019000BF00BF00BFED
:103F50000846006840F0080008600846006800F065
:103F60000800019000BF00BF00224FF440514FF401
:103F7000A050C5F60200FDF782F901224FF440413E
:103F80004FF44060C5F60200FDF779F94FF4405058
:103F9000029001200390002004900320059002A9C4
:103FA0004FF4A050C5F60200FDF734F84FF440403E
:103FB000029001200390002004900320059002A9A4
:103FC0004FF44060C5F60200FDF724F807B000BDCD
:103FD00000B599B00020C4F2010040F24401C2F2E1
:103FE000004108604FF4C8704860002140F244006E
:103FF000C2F2004081606421C16000210161416121
:104000008161FFF729FB30B1472146F2F830C0F655
:10401000000001F0EAFE4FF48050159015A940F21F
:104020004400C2F20040FFF7E0FB30B14D2146F200
:10403000F830C0F6000001F0D8FE40F24400C2F2B1
:104040000040FFF774FD30B1522146F2F830C0F65F
:10405000000001F0CAFE202012900020139014905E
:1040600012A940F24400C2F20040FFF7BFFA30B19B
:104070005A2146F2F830C0F6000001F0B6FE60208A
:104080000B9000200C900D900E900F9010901190BE
:1040900000220BA940F24400C2F20040FFF78DFC61
:1040A00030B1662146F2F830C0F6000001F09DFE06
:1040B0000020009001900290039004904FF4005073
:1040C00005900020069007904FF0007008900020A7
:1040D00009900A90694640F24400C2F20040FFF79E
:1040E0002AFA30B1762146F2F830C0F6000001F02D
:1040F0007CFE40F24400C2F20040FFF715FC19B00C
:1041000000BD00B58FB04FF0804040F28401C2F294
:10411000004108604FF4C8704860002140F28400FC
:10412000C2F2004081606421C160002101618161AF
:10413000FFF792FA30B18B2146F2F830C0F600005A
:1041400001F053FE4FF480500B900BA940F2840015
:10415000C2F20040FFF749FB30B1912146F2F8303E
:10416000C0F6000001F041FE40F28400C2F20040BF
:10417000FFF7DDFC30B1962146F2F830C0F60000C2
:1041800001F033FE2020089000200A9008A940F298
:104190008400C2F20040FFF729FA30B19D2146F2B7
:1041A000F830C0F6000001F020FE602001900020F1
:1041B000029003900590002201A940F28400C2F20F
:1041C0000040FFF7FAFB30B1A62146F2F830C0F606
:1041D000000001F00AFE40F28400C2F20040FFF746
:1041E000A3FB0FB000BD00B58FB04FF48060C4F2E8
:1041F000000040F2C401C2F2004108604FF4C870F0
:104200004860002140F2C400C2F200408160642195
:10421000C160002101618161FFF71EFA30B1BB214D
:1042200046F2F830C0F6000001F0DFFD4FF4805098
:104230000B900BA940F2C400C2F20040FFF7D5FA80
:1042400030B1C12146F2F830C0F6000001F0CDFDDA
:1042500040F2C400C2F20040FFF769FC30B1C62151
:1042600046F2F830C0F6000001F0BFFD20200890B3
:1042700000200A9008A940F2C400C2F20040FFF7F3
:10428000B5F930B1CD2146F2F830C0F6000001F0AA
:10429000ACFD602001900020029003900590002268
:1042A00001A940F2C400C2F20040FFF786FB30B122
:1042B000D62146F2F830C0F6000001F096FD40F23B
:1042C000C400C2F20040FFF72FFB0FB000BD00B5E5
:1042D00089B04FF40060C4F2000040F20411C2F251
:1042E0000041086000204860002140F20410C2F242
:1042F000004081604FF47A61C160002101618161F9
:10430000FFF7AAF930B1EA2146F2F830C0F6000012
:1043100001F06BFD072004901020059004A940F2E5
:104320000410C2F20040FFF759FC30B1F12146F20F
:10433000F830C0F6000001F058FD00200190039015
:1043400001A940F20410C2F20040FFF74FF930B16A
:10435000F82146F2F830C0F6000001F046FD09B041
:1043600000BD00B589B04FF44060C4F2000040F2D7
:104370004411C2F20041086000204860002140F270
:104380004410C2F2004081604FF47A61C1600021A4
:1043900001618161FFF760F938B14FF4857146F230
:1043A000F830C0F6000001F020FD07200490202026
:1043B000059004A940F24410C2F20040FFF70EFC41
:1043C00038B140F2111146F2F830C0F6000001F0A9
:1043D0000CFD00200190039001A940F24410C2F2AC
:1043E0000040FFF703F938B14FF48C7146F2F83012
:1043F000C0F6000001F0F9FC09B000BD00B589B0BD
:104400004FF48060C4F2010040F28411C2F2004116
:10441000086000204860002140F28410C2F2004091
:1044200081604FF47A61C160002101614161816165
:10443000FFF712F938B140F22B1146F2F830C0F60E
:10444000000001F0D2FC072004900020059004A990
:1044500040F28410C2F20040FFF7C0FB38B14FF4C5
:10446000997146F2F830C0F6000001F0BEFC002061
:1044700001900290039001A940F28410C2F2004022
:10448000FFF7B4F838B14FF49D7146F2F830C0F63A
:10449000000001F0AAFC09B000BD10B54FF498402F
:1044A000C4F2000040F2C411C2F2004108604FF4AF
:1044B000E1304860002140F2C410C2F20040816047
:1044C000C16001610C21416100218161C161016212
:1044D00041628162C1620163002040F2C411C2F2F4
:1044E000004148630846FFF7A5FB30B14A2146F278
:1044F0000840C0F6000001F078FC10BD00BFFEE7E8
:10450000704770472DE9F04104460E46002744F2FB
:104510002840C5F60200006800F00300032802D11D
:104520000120BDE8F0814FF48840C5F60200006824
:1045300020F080604FF48841C5F602010860FCF766
:10454000A3FE054606E0FCF79FFE401B022801D9AA
:104550000320E6E74FF48840C5F602000068C0F388
:10456000C0600028EFD100BF44F22840C5F6020029
:10457000006820F47C30216840EA013044F2284190
:10458000C5F602010860A088401EC0F30800A168BB
:10459000491E4FF47E4202EA41210843A189491E87
:1045A000D20102EA01410843217C491E120202EABB
:1045B0000161084344F23841C5F60201086000BFBA
:1045C00044F22C40C5F60200006820F0C00061698A
:1045D000084344F22C41C5F6020108600846006811
:1045E00020F02000A169084344F22C41C5F60201E5
:1045F00008602EB90846006840F4002008601AE000
:10460000012E0CD144F22C40C5F60200006840F4A3
:10461000801044F22C41C5F6020108600BE044F220
:104620002C40C5F60200006840F4001044F22C4112
:10463000C5F6020108604FF48840C5F60200006824
:1046400040F080604FF48841C5F602010860FCF735
:104650001BFE054606E0FCF717FE401B022801D9A9
:1046600003205EE74FF48840C5F602000068C0F3FF
:10467000C0600028EFD0384653E72DE9F0410446EA
:104680000E46002744F22840C5F60200006800F0FC
:104690000300032802D10120BDE8F0814FF48840D7
:1046A000C5F60200006820F080504FF48841C5F63E
:1046B00002010860FCF7E8FD054606E0FCF7E4FDB2
:1046C000401B022801D90320E6E74FF48840C5F6D5
:1046D00002000068C0F340700028EFD100BF44F230
:1046E0002840C5F60200006820F07C70218840EA6E
:1046F000015044F22841C5F602010860A088401E1E
:10470000C0F30800A168491E4FF47E4202EA41212D
:104710000843A189491ED20102EA01410843217CD4
:10472000491E120202EA0161084344F24041C5F603
:104730000201086000BF44F22C40C5F60200006888
:1047400020F440606169084344F22C41C5F602013F
:1047500008600846006820F40070A169084344F22C
:104760002C41C5F6020108602EB90846006840F4E5
:10477000800008601AE0012E0CD144F22C40C5F6EE
:104780000200006840F4000044F22C41C5F602012A
:1047900008600BE044F22C40C5F60200006840F0CF
:1047A000807044F22C41C5F6020108604FF4884045
:1047B000C5F60200006840F080504FF48841C5F60D
:1047C00002010860FCF760FD054606E0FCF75CFDB1
:1047D000401B022801D903205EE74FF48840C5F64C
:1047E00002000068C0F340700028EFD0384653E75D
:1047F000704710B5FCF74EFDFEF799FE10BD10B5E1
:10480000CCB044F60C00C5F60200006820F00400AD
:1048100044F60C01C5F60201086000BF00200190BB
:1048200044F61800C5F60200006840F4404044F623
:104830001801C5F6020108600846006800F440400F
:10484000019000BF00BF00BF44F61800C5F602008B
:10485000006800F40050B0F5005FF5D101203990F8
:1048600000043A9002204290022139A8816201217D
:10487000C162642101630221416304218163022139
:10488000C1630C210164002141648164FEF7FDF9DC
:1048900030B1DF2146F2E830C0F6000001F0A5FAA1
:1048A0003F20319003203290002033900820349034
:1048B00040203590369000013790402038900221FA
:1048C00031A8FDF7D8FE30B1F12146F2E830C0F64C
:1048D000000001F08AFA0220029000201F9002A836
:1048E000FDF75AF830B1F82146F2E830C0F6000082
:1048F00001F07BFA40F22400C2F2004000684FF45D
:104900007A71B0FBF1F42046FEF7F7FD0420FEF7C4
:10491000DFFD00221146501EFCF753FD4CB010BDC8
:104920004EF68850CEF20000006840F470004EF65B
:104930008851CEF2000108604FF48840C5F60200AD
:10494000006840F001004FF48841C5F6020108609C
:10495000002044F21041C5F6020108604FF488407F
:10496000C5F6020000684EF67F51CEF6F6210840EB
:104970004FF48841C5F602010860002044F2184156
:10498000C5F602010860091D0860091D086044F2AF
:104990002841C5F602010860091D0860091D08606C
:1049A000091D0860091D0860091D0860091D0860CF
:1049B000091D08604FF48840C5F60200006820F425
:1049C00080204FF48841C5F602010860002044F2BF
:1049D0006041C5F602010860012048F20811C5F2E5
:1049E00000110860C0064EF60851CEF200010860C2
:1049F000704710B5002202880023C4F201039842D8
:104A00001AD0B0F1804F17D04FF48063C4F2000386
:104A1000984211D04FF40063C4F2000398420BD0C7
:104A20004FF44063C4F20003984205D04FF4806312
:104A3000C4F20103984203D122F070024B681A437A
:104A40000023C4F2010398422CD0B0F1804F29D04A
:104A50004FF48063C4F20003984223D04FF4006304
:104A6000C4F2000398421DD04FF44063C4F2000327
:104A7000984217D04FF48063C4F20103984211D0DA
:104A80004FF48043C4F2010398420BD04FF48843A3
:104A9000C4F20103984205D04FF49043C4F20103DD
:104AA000984203D122F44072CB681A4322F080036B
:104AB0004C6943EA040202808B68C3620B88038559
:104AC0000023C4F20103984217D04FF48063C4F26C
:104AD0000103984211D04FF48043C4F2010398427D
:104AE0000BD04FF48843C4F20103984205D04FF431
:104AF0009043C4F20103984201D10B8A038601233B
:104B0000436110BD30B50023012404FA01F3046AA7
:104B10009C430462046A02FA01F52C43046230BD2E
:104B200030B50C460021816821F47F4142EA03251B
:104B300025432943816030BD0A460021816821F068
:104B4000700121F4401142F007031943816070475E
:104B500030B5002400220023056A25F00105056216
:104B6000026A4368846924F0700424F4803424F0D9
:104B700003040D682C4322F002028D682A430025AD
:104B8000C4F20105A84200D11BE04FF48065C4F2D5
:104B90000105A84200D114E04FF48045C4F201059C
:104BA000A84200D10DE04FF48845C4F20105A842A7
:104BB00000D106E04FF49045C4F20105A84206D1A9
:104BC00000BF22F00802CD682A4322F0040200252B
:104BD000C4F20105A84217D04FF48065C4F2010564
:104BE000A84211D04FF48045C4F20105A8420BD071
:104BF0004FF48845C4F20105A84205D04FF4904512
:104C0000C4F20105A84207D123F4807323F4007392
:104C10004D692B438D692B43436084614D68456327
:104C2000026230BD30B5002400220023056A25F061
:104C300010050562026A4368846924F4E04424F0A4
:104C4000807424F440740D6844EA052422F02002A4
:104C50008D6842EA05120025C4F20105A84200D180
:104C60001BE04FF48065C4F20105A84200D114E0B6
:104C70004FF48045C4F20105A84200D100BF4FF4B3
:104C80008845C4F20105A84200D100BF4FF4904509
:104C9000C4F20105A84207D106E022F08002CD68E7
:104CA00042EA051222F040020025C4F20105A842A2
:104CB00017D04FF48065C4F20105A84211D04FF41B
:104CC0008045C4F20105A8420BD04FF48845C4F2D8
:104CD0000105A84205D04FF49045C4F20105A84251
:104CE00009D123F4806323F400634D6943EA85030B
:104CF0008D6943EA8503436084614D688563026280
:104D000030BD30B5002400220023056A25F48075EB
:104D10000562026A4368C46924F0700424F0030445
:104D20000D682C4322F400728D6842EA05220025AA
:104D3000C4F20105A84200D11BE04FF48065C4F223
:104D40000105A84200D114E04FF48045C4F20105EA
:104D5000A84200D100BF4FF48845C4F20105A84223
:104D600000D100BF4FF49045C4F20105A84207D11D
:104D700006E022F40062CD6842EA052222F4806255
:104D80000025C4F20105A84217D04FF48065C4F293
:104D90000105A84211D04FF48045C4F20105A84294
:104DA0000BD04FF48845C4F20105A84205D04FF45A
:104DB0009045C4F20105A84209D123F4805323F49D
:104DC00000534D6943EA05138D6943EA05134360B7
:104DD000C4614D68C563026230BD30B50022002356
:104DE0000024056A25F480550562036A4468C26997
:104DF00022F4E04222F440720D6842EA052223F4D4
:104E000000538D6843EA05330025C4F20105A8422A
:104E100017D04FF48065C4F20105A84211D04FF4B9
:104E20008045C4F20105A8420BD04FF48845C4F276
:104E30000105A84205D04FF49045C4F20105A842EF
:104E400004D124F480444D6944EA85144460C2616D
:104E50004D680564036230BD30B500230022002494
:104E6000056A25F480350562026A4468436D23F0C3
:104E700070030D682B4322F400320D8942EA05428B
:104E80000025C4F20105A84217D04FF48065C4F292
:104E90000105A84211D04FF48045C4F20105A84293
:104EA0000BD04FF48845C4F20105A84205D04FF459
:104EB0009045C4F20105A84204D124F480344D6920
:104EC00044EA0524446043654D688565026230BD4F
:104ED00030B5002200230024056A25F48015056200
:104EE000036A4468426D22F4E0420D6842EA0522FA
:104EF00023F400130D8943EA05530025C4F201058C
:104F0000A84217D04FF48065C4F20105A84211D021
:104F10004FF48045C4F20105A8420BD04FF48845F8
:104F2000C4F20105A84205D04FF49045C4F2010532
:104F3000A84204D124F400344D6944EA8524446035
:104F400042654D68C565036230BD2DE9F0410446F8
:104F50000D4600260027B0462068866826F07006B9
:104F600026F440166868064326F0070626F48036C5
:104F70002868064320688660686800F00F010029F1
:104F800035D10011082832D246F24941C0F600015D
:104F9000D1E800F0D5E90313AA682068FFF7C0FD47
:104FA00026E02068D0F820802068006A20F0010008
:104FB000216808622068876927F0F007286947EAB6
:104FC0000017206887612068C0F8208010E02A69F7
:104FD000A968206800F00FF80AE02A69A96820682B
:104FE00000F01EF804E003E002E001E000E000BF92
:104FF00000BFBDE8F08130B50B4614460021002209
:10500000026A056A25F001050562816921F0F00157
:1050100041EA041122F00A021A438161026230BDA2
:1050200030B50B46144600210022056A25F0100514
:1050300005628169026A21F4704141EA043122F07B
:10504000A00242EA03128161026230BD90F834107E
:1050500001F0010139B10168496821F40031826B26
:1050600011430268516090F8341001F0020139B127
:105070000168496821F48031C26B114302685160B4
:1050800090F8341001F0040139B10168496821F445
:105090008021026C11430268516090F8341001F0D5
:1050A000080139B10168496821F40041426C11439B
:1050B0000268516090F8341001F0100139B10168B4
:1050C000896821F48051826C11430268916090F8E4
:1050D000341001F0200139B10168896821F40051D0
:1050E000C26C11430268916090F8341001F04001E5
:1050F00099B10168496821F48011026D1143026879
:105100005160016DB1F5801F07D10168496821F434
:10511000C001426D11430268516090F8341001F0F3
:10512000800139B10168496821F40021826D114381
:1051300002685160704738B5044600250020E067DA
:10514000FCF7A2F805462068006800F0080008286F
:105150000CD16FF07E402B4600224FF400110090DE
:10516000204600F00AFE08B1032038BD2068006820
:1051700000F0040004280CD16FF07E402B46002282
:105180004FF480010090204600F0F7FD08B10320A5
:10519000EBE7202084F8790084F87A0000BF002033
:1051A00084F8780000BF00BFDFE770B50546AC6B40
:1051B0002846FBF7F1FA022824D094F87900212838
:1051C0000AD12068806800F0800028B10020A4F88F
:1051D0006200204600F051F894F87A0022280AD1A3
:1051E0002068806800F0400028B10020A4F86A0020
:1051F000204600F032F8E06F40F01000E0672046F3
:10520000FEF717FD70BD70B50546AC6BE869B0F5EB
:10521000807F17D00020A4F86A002068006820F47E
:105220008070216808602068806820F00100216893
:1052300088602068806820F0400021688860202015
:1052400084F87A002046FEF71AFE70BD70B5044659
:10525000A56B2846FEF715FE70BD0168096821F4AC
:105260009071026811600168896821F0010102688B
:105270009160202180F87A1070470168096821F058
:10528000C00102681160202180F8791070472DE973
:10529000F04F89B0044600254FF08008A946AA4681
:1052A000002008904FF44061C5F600012068884254
:1052B00001D1012000E0002000B100E000BFA06AA1
:1052C000B0F1005F00D100BF2169A06808436169A7
:1052D0000843E16940EA0105A06A054320680068C7
:1052E00046F6F311CCF6FF710840284321680860A8
:1052F0002068406820F44050E16808432168486015
:10530000A5694FF44061C5F600012068884201D1CB
:10531000012000E0002008B9206A0543A06AB0F12E
:10532000005F03D1D4E90B0108430543206880687E
:1053300020F4306020F06E402843216888602068A7
:10534000C06A20F00F00616A08432168C86200BF8C
:105350004FF48051C4F201012068884227D144F201
:105360005440C5F60200006800F03800182814D038
:1053700005DC48B108280AD0102817D10AE02028F7
:105380000ED0282812D10EE04FF001080EE04FF0A9
:1053900004080BE04FF0400808E04FF0080805E073
:1053A0004FF0100802E04FF0200800BF4DE14FF42D
:1053B0008841C4F200012068884221D144F254405F
:1053C000C5F60200006800F00700062817D246F272
:1053D0005141C0F60001D1E800F04FF000080EE0A6
:1053E0004FF004080BE04FF0400808E04FF00808C9
:1053F00005E04FF0100802E04FF0200800BF24E164
:105400004FF49041C4F200012068884221D144F257
:105410005440C5F60200006800F00700062817D2C5
:1054200046F25741C0F60001D1E800F04FF0000805
:105430000EE04FF004080BE04FF0400808E04FF09A
:10544000080805E04FF0100802E04FF0200800BF08
:10545000FBE04FF49841C4F200012068884221D15A
:1054600044F25440C5F60200006800F00700062828
:1054700017D246F25D41C0F60001D1E800F04FF0CE
:1054800000080EE04FF004080BE04FF0400808E081
:105490004FF0080805E04FF0100802E04FF0200838
:1054A00000BFD2E04FF4A041C4F20001206888425E
:1054B00021D144F25440C5F60200006800F0070014
:1054C000062817D246F26341C0F60001D1E800F089
:1054D0004FF000080EE04FF004080BE04FF04008DA
:1054E00008E04FF0080805E04FF0100802E04FF028
:1054F000200800BFA9E04FF4A051C4F201012068C8
:10550000884227D144F25440C5F60200006800F0FA
:105510003800182814D005DC48B108280AD0102813
:1055200017D10AE020280ED0282812D10EE04FF023
:1055300001080EE04FF004080BE04FF0400808E0CF
:105540004FF0080805E04FF0100802E04FF0200887
:1055500000BF7AE04FF4F041C4F2000120688842B5
:1055600021D144F25440C5F60200006800F0070063
:10557000062817D246F26941C0F60001D1E800F0D2
:105580004FF000080EE04FF004080BE04FF0400829
:1055900008E04FF0080805E04FF0100802E04FF077
:1055A000200800BF51E04FF4F841C4F20001206828
:1055B000884221D144F25440C5F60200006800F050
:1055C0000700062817D246F26F41C0F60001D1E865
:1055D00000F04FF000080EE04FF004080BE04FF031
:1055E000400808E04FF0080805E04FF0100802E01E
:1055F0004FF0200800BF28E04FF44061C5F60001DD
:105600002068884221D144F25840C5F60200006863
:1056100000F00700062817D246F27541C0F60001D7
:10562000D1E800F04FF002080EE04FF004080BE064
:105630004FF0400808E04FF0080805E04FF0100870
:1056400002E04FF0200800BF00BF00BF4FF44061F0
:10565000C5F600012068884201D1012000E0002049
:10566000002874D00025B8F1100F3DD009DCB8F146
:10567000020F10D0B8F1040F11D0B8F1080F3BD1D0
:1056800017E0B8F1200F34D0B8F1400F0CD0B8F1CA
:10569000800F31D131E0FBF708FF054630E005A867
:1056A000FBF71AFF069D2BE002A8FCF745F8039DC7
:1056B00026E04FF48840C5F602000068C0F34010B1
:1056C00068B14FF48840C5F602000068C0F3C1011C
:1056D0004FF41040C0F2D03020FA01F503E04FF44F
:1056E0001045C0F2D0350BE04FF41065C0F23D0517
:1056F00006E04FF4004503E000BF0120089000BF22
:1057000000BF002D0AD0606800EB4000A84203D81B
:1057100060680003A84202D20120089029E3B8F192
:10572000100F7ED009DCB8F1020F11D0B8F1040FD0
:1057300039D0B8F1080F75D18CE0B8F1200F72D0D4
:10574000B8F1400F58D0B8F1800FF4D134E143E103
:10575000FBF7ABFE0027064646F2AE31C0F600016D
:10576000606A31F810C062463B4630463946FAF767
:1057700003FE4FF4807300220646A6FB030701FBDD
:10578000037106FB02166168490803465918724105
:10579000CDE9001266683246002308460199FAF7FF
:1057A000EBFD05460BE105A8FBF796FEDDF818C0FA
:1057B00046F2AE31C0F60001606A31F810B05A46C8
:1057C000002360461946FAF7D7FD4FF4807C00228B
:1057D000A0FB0C3B01FB0CB100FB02106168490807
:1057E0005E1840EB0201D4F804C062460023304644
:1057F000FAF7C2FD0546E2E002A8FBF79DFFDDF8DF
:105800000CC046F2AE31C0F60001606A31F810B04B
:105810005A46002360461946FAF7AEFD4FF48073EE
:1058200002E07AE0C7E0A0E000228446ACFB030B74
:1058300001FB03B10CFB021361684908461843EBF6
:105840000201D4F804C0624600233046FAF794FD02
:105850000546B4E04FF48840C5F602000068C0F386
:10586000401088B34FF48840C5F602000068C0F3CA
:10587000C1014FF41040C0F2D03020FA01FC46F2D2
:10588000AE31C0F60001606A31F810B05A4600230C
:1058900060461946FAF770FD4FF4807C00220346FB
:1058A000A3FB0C0B01FB0CB103FB0213616849085D
:1058B000461843EB0201D4F804C062460023304688
:1058C000FAF75AFD054627E0FFE746F2AE31C0F68B
:1058D0000001606A31F810C0624600234FF41040A6
:1058E000C0F2D0301946FAF747FD4FF4807C002211
:1058F0000346A3FB0C0B01FB0CB103FB0213616815
:105900004908461843EB0201D4F804C0624600235C
:105910003046FAF731FD054651E046F2AE31C0F6A9
:105920000001606A31F810C0624600234FF4106035
:10593000C0F23D001946FAF71FFD4FF4807C0022AB
:105940000346A3FB0C0B01FB0CB103FB021C6168BB
:10595000490846184CEB0201D4F804C06246002303
:105960003046FAF709FD054629E046F2AE31C0F6A9
:105970000001606A31F810C0624600234FF4004015
:105980001946FAF7F9FC4FF4807300228C46A0FB0D
:10599000031B0CFB03B300FB023C606840080E18BD
:1059A0004CEB0201D4F804C0624600233046FAF7FB
:1059B000E3FC054603E000BF0120089000BF00BFE4
:1059C000B5F5407F05D3B5F5801F02D22068C560CC
:1059D000CFE101200890CCE1E069B0F5004F7ED125
:1059E000B8F1100F7CD00CDCB8F1000F13D0B8F177
:1059F000010F24D0B8F1040F35D0B8F1080F70D1E1
:105A00005DE0B8F1200F6DD0B8F1400F41D0B8F192
:105A1000800F66D1BFE0FCF7B8FF46F2AE32C0F6A9
:105A20000002616A32F81110B0FBF1F040006168C9
:105A300000EB5100B0FBF1F01FFA80FAAEE0FCF78A
:105A4000BBFF46F2AE32C0F60002616A32F81110B6
:105A5000B0FBF1F04000616800EB5100B0FBF1F0E9
:105A60001FFA80FA9AE005A8FBF736FD069946F280
:105A7000AE32C0F60002606A32F81000B1FBF0F0FE
:105A80004000616800EB5100B0FBF1F01FFA80FAB2
:105A900084E002A8FBF750FE039946F2AE32C0F64E
:105AA0000002606A32F81000B1FBF0F0400061685B
:105AB00000EB5100B0FBF1F01FFA80FA6EE04FF4FA
:105AC0008840C5F602000068C0F3401010B34FF4E0
:105AD0008840C5F602000068C0F3C10103E06AE037
